{
  "contractName": "Marketplace",
  "abi": [
    {
      "inputs": [],
      "stateMutability": "nonpayable",
      "type": "constructor"
    },
    {
      "anonymous": false,
      "inputs": [
        {
          "indexed": false,
          "internalType": "address",
          "name": "nftContract",
          "type": "address"
        },
        {
          "indexed": false,
          "internalType": "uint256",
          "name": "tokenId",
          "type": "uint256"
        },
        {
          "indexed": false,
          "internalType": "address",
          "name": "seller",
          "type": "address"
        },
        {
          "indexed": false,
          "internalType": "address",
          "name": "owner",
          "type": "address"
        },
        {
          "indexed": false,
          "internalType": "uint256",
          "name": "price",
          "type": "uint256"
        },
        {
          "indexed": false,
          "internalType": "uint256",
          "name": "supply",
          "type": "uint256"
        },
        {
          "indexed": false,
          "internalType": "uint256",
          "name": "royalty",
          "type": "uint256"
        }
      ],
      "name": "NFTListed",
      "type": "event"
    },
    {
      "anonymous": false,
      "inputs": [
        {
          "indexed": false,
          "internalType": "address",
          "name": "nftContract",
          "type": "address"
        },
        {
          "indexed": false,
          "internalType": "uint256",
          "name": "tokenId",
          "type": "uint256"
        },
        {
          "indexed": false,
          "internalType": "address",
          "name": "seller",
          "type": "address"
        },
        {
          "indexed": false,
          "internalType": "address",
          "name": "owner",
          "type": "address"
        },
        {
          "indexed": false,
          "internalType": "uint256",
          "name": "price",
          "type": "uint256"
        },
        {
          "indexed": false,
          "internalType": "uint256",
          "name": "supply",
          "type": "uint256"
        },
        {
          "indexed": false,
          "internalType": "uint256",
          "name": "royalty",
          "type": "uint256"
        }
      ],
      "name": "NFTSold",
      "type": "event"
    },
    {
      "inputs": [],
      "name": "LISTING_FEE",
      "outputs": [
        {
          "internalType": "uint256",
          "name": "",
          "type": "uint256"
        }
      ],
      "stateMutability": "view",
      "type": "function",
      "constant": true
    },
    {
      "inputs": [
        {
          "internalType": "address",
          "name": "_nftContract",
          "type": "address"
        },
        {
          "internalType": "uint256",
          "name": "_tokenId",
          "type": "uint256"
        },
        {
          "internalType": "uint256",
          "name": "_price",
          "type": "uint256"
        },
        {
          "internalType": "uint256",
          "name": "_supply",
          "type": "uint256"
        },
        {
          "internalType": "uint256",
          "name": "_royalty",
          "type": "uint256"
        }
      ],
      "name": "listNft",
      "outputs": [],
      "stateMutability": "payable",
      "type": "function",
      "payable": true
    },
    {
      "inputs": [
        {
          "internalType": "address",
          "name": "_nftContract",
          "type": "address"
        },
        {
          "internalType": "uint256",
          "name": "_tokenId",
          "type": "uint256"
        },
        {
          "internalType": "uint256",
          "name": "_price",
          "type": "uint256"
        },
        {
          "internalType": "uint256",
          "name": "_supply",
          "type": "uint256"
        },
        {
          "internalType": "uint256",
          "name": "_royalty",
          "type": "uint256"
        }
      ],
      "name": "resellNft",
      "outputs": [],
      "stateMutability": "payable",
      "type": "function",
      "payable": true
    },
    {
      "inputs": [
        {
          "internalType": "address",
          "name": "_nftContract",
          "type": "address"
        },
        {
          "internalType": "uint256",
          "name": "_tokenId",
          "type": "uint256"
        }
      ],
      "name": "buyNft",
      "outputs": [],
      "stateMutability": "payable",
      "type": "function",
      "payable": true
    },
    {
      "inputs": [],
      "name": "getListingFee",
      "outputs": [
        {
          "internalType": "uint256",
          "name": "",
          "type": "uint256"
        }
      ],
      "stateMutability": "view",
      "type": "function",
      "constant": true
    },
    {
      "inputs": [],
      "name": "getListedNfts",
      "outputs": [
        {
          "components": [
            {
              "internalType": "address",
              "name": "nftContract",
              "type": "address"
            },
            {
              "internalType": "uint256",
              "name": "tokenId",
              "type": "uint256"
            },
            {
              "internalType": "address payable",
              "name": "seller",
              "type": "address"
            },
            {
              "internalType": "address payable",
              "name": "owner",
              "type": "address"
            },
            {
              "internalType": "uint256",
              "name": "price",
              "type": "uint256"
            },
            {
              "internalType": "uint256",
              "name": "supply",
              "type": "uint256"
            },
            {
              "internalType": "uint256",
              "name": "royalty",
              "type": "uint256"
            },
            {
              "internalType": "bool",
              "name": "listed",
              "type": "bool"
            }
          ],
          "internalType": "struct Marketplace.NFT[]",
          "name": "",
          "type": "tuple[]"
        }
      ],
      "stateMutability": "view",
      "type": "function",
      "constant": true
    },
    {
      "inputs": [],
      "name": "getMyNfts",
      "outputs": [
        {
          "components": [
            {
              "internalType": "address",
              "name": "nftContract",
              "type": "address"
            },
            {
              "internalType": "uint256",
              "name": "tokenId",
              "type": "uint256"
            },
            {
              "internalType": "address payable",
              "name": "seller",
              "type": "address"
            },
            {
              "internalType": "address payable",
              "name": "owner",
              "type": "address"
            },
            {
              "internalType": "uint256",
              "name": "price",
              "type": "uint256"
            },
            {
              "internalType": "uint256",
              "name": "supply",
              "type": "uint256"
            },
            {
              "internalType": "uint256",
              "name": "royalty",
              "type": "uint256"
            },
            {
              "internalType": "bool",
              "name": "listed",
              "type": "bool"
            }
          ],
          "internalType": "struct Marketplace.NFT[]",
          "name": "",
          "type": "tuple[]"
        }
      ],
      "stateMutability": "view",
      "type": "function",
      "constant": true
    },
    {
      "inputs": [],
      "name": "getMyListedNfts",
      "outputs": [
        {
          "components": [
            {
              "internalType": "address",
              "name": "nftContract",
              "type": "address"
            },
            {
              "internalType": "uint256",
              "name": "tokenId",
              "type": "uint256"
            },
            {
              "internalType": "address payable",
              "name": "seller",
              "type": "address"
            },
            {
              "internalType": "address payable",
              "name": "owner",
              "type": "address"
            },
            {
              "internalType": "uint256",
              "name": "price",
              "type": "uint256"
            },
            {
              "internalType": "uint256",
              "name": "supply",
              "type": "uint256"
            },
            {
              "internalType": "uint256",
              "name": "royalty",
              "type": "uint256"
            },
            {
              "internalType": "bool",
              "name": "listed",
              "type": "bool"
            }
          ],
          "internalType": "struct Marketplace.NFT[]",
          "name": "",
          "type": "tuple[]"
        }
      ],
      "stateMutability": "view",
      "type": "function",
      "constant": true
    }
  ],
  "bytecode": "0x6080604052655af3107a400060035534801561001a57600080fd5b50600160008190555073944afe2af5c3d5637f1f3cdb4a130f272de73420600460006101000a81548173ffffffffffffffffffffffffffffffffffffffff021916908373ffffffffffffffffffffffffffffffffffffffff160217905550611f28806100876000396000f3fe60806040526004361061007b5760003560e01c80634ddf4f8f1161004e5780634ddf4f8f1461011d5780638d6cb3fb14610139578063b8fe6abe14610164578063ec70405f1461018f5761007b565b8063047b07bf146100805780630cb6fbd5146100ab5780631f4cc4db146100c75780632b86ae38146100f2575b600080fd5b34801561008c57600080fd5b506100956101ab565b6040516100a29190611746565b60405180910390f35b6100c560048036038101906100c091906117c5565b6104f3565b005b3480156100d357600080fd5b506100dc610729565b6040516100e99190611746565b60405180910390f35b3480156100fe57600080fd5b50610107610ae3565b604051610114919061184f565b60405180910390f35b6101376004803603810190610132919061186a565b610ae9565b005b34801561014557600080fd5b5061014e610de9565b60405161015b9190611746565b60405180910390f35b34801561017057600080fd5b50610179611066565b604051610186919061184f565b60405180910390f35b6101a960048036038101906101a491906117c5565b611070565b005b606060006101b96002611455565b90506000805b8281101561025e573373ffffffffffffffffffffffffffffffffffffffff16600560006001846101ef91906118d9565b815260200190815260200160002060030160009054906101000a900473ffffffffffffffffffffffffffffffffffffffff1673ffffffffffffffffffffffffffffffffffffffff160361024b5781806102479061190d565b9250505b80806102569061190d565b9150506101bf565b5060008167ffffffffffffffff81111561027b5761027a611955565b5b6040519080825280602002602001820160405280156102b457816020015b6102a16114d5565b8152602001906001900390816102995790505b5090506000805b848110156104e8573373ffffffffffffffffffffffffffffffffffffffff16600560006001846102eb91906118d9565b815260200190815260200160002060030160009054906101000a900473ffffffffffffffffffffffffffffffffffffffff1673ffffffffffffffffffffffffffffffffffffffff16036104d5576005600060018361034991906118d9565b8152602001908152602001600020604051806101000160405290816000820160009054906101000a900473ffffffffffffffffffffffffffffffffffffffff1673ffffffffffffffffffffffffffffffffffffffff1673ffffffffffffffffffffffffffffffffffffffff168152602001600182015481526020016002820160009054906101000a900473ffffffffffffffffffffffffffffffffffffffff1673ffffffffffffffffffffffffffffffffffffffff1673ffffffffffffffffffffffffffffffffffffffff1681526020016003820160009054906101000a900473ffffffffffffffffffffffffffffffffffffffff1673ffffffffffffffffffffffffffffffffffffffff1673ffffffffffffffffffffffffffffffffffffffff1681526020016004820154815260200160058201548152602001600682015481526020016007820160009054906101000a900460ff1615151515815250508383815181106104bb576104ba611984565b5b602002602001018190525081806104d19061190d565b9250505b80806104e09061190d565b9150506102bb565b508194505050505090565b600260005403610538576040517f08c379a000000000000000000000000000000000000000000000000000000000815260040161052f90611a10565b60405180910390fd5b60026000819055506003543414610584576040517f08c379a000000000000000000000000000000000000000000000000000000000815260040161057b90611a7c565b60405180910390fd5b8473ffffffffffffffffffffffffffffffffffffffff166323b872dd3330876040518463ffffffff1660e01b81526004016105c193929190611aab565b600060405180830381600087803b1580156105db57600080fd5b505af11580156105ef573d6000803e3d6000fd5b505050506000600560008681526020019081526020016000209050338160020160006101000a81548173ffffffffffffffffffffffffffffffffffffffff021916908373ffffffffffffffffffffffffffffffffffffffff160217905550308160030160006101000a81548173ffffffffffffffffffffffffffffffffffffffff021916908373ffffffffffffffffffffffffffffffffffffffff16021790555060018160070160006101000a81548160ff0219169083151502179055508381600401819055508281600501819055508181600601819055506106d26001611463565b7f380acab0ee1d651da065961944240ee750b6935ba0edefa78afb1c8e0767628686863330888660050154886040516107119796959493929190611ae2565b60405180910390a15060016000819055505050505050565b606060006107376002611455565b90506000805b82811015610815573373ffffffffffffffffffffffffffffffffffffffff166005600060018461076d91906118d9565b815260200190815260200160002060020160009054906101000a900473ffffffffffffffffffffffffffffffffffffffff1673ffffffffffffffffffffffffffffffffffffffff161480156107ee5750600560006001836107ce91906118d9565b815260200190815260200160002060070160009054906101000a900460ff165b156108025781806107fe9061190d565b9250505b808061080d9061190d565b91505061073d565b5060008167ffffffffffffffff81111561083257610831611955565b5b60405190808252806020026020018201604052801561086b57816020015b6108586114d5565b8152602001906001900390816108505790505b5090506000805b84811015610ad8573373ffffffffffffffffffffffffffffffffffffffff16600560006001846108a291906118d9565b815260200190815260200160002060020160009054906101000a900473ffffffffffffffffffffffffffffffffffffffff1673ffffffffffffffffffffffffffffffffffffffff1614801561092357506005600060018361090391906118d9565b815260200190815260200160002060070160009054906101000a900460ff165b15610ac5576005600060018361093991906118d9565b8152602001908152602001600020604051806101000160405290816000820160009054906101000a900473ffffffffffffffffffffffffffffffffffffffff1673ffffffffffffffffffffffffffffffffffffffff1673ffffffffffffffffffffffffffffffffffffffff168152602001600182015481526020016002820160009054906101000a900473ffffffffffffffffffffffffffffffffffffffff1673ffffffffffffffffffffffffffffffffffffffff1673ffffffffffffffffffffffffffffffffffffffff1681526020016003820160009054906101000a900473ffffffffffffffffffffffffffffffffffffffff1673ffffffffffffffffffffffffffffffffffffffff1673ffffffffffffffffffffffffffffffffffffffff1681526020016004820154815260200160058201548152602001600682015481526020016007820160009054906101000a900460ff161515151581525050838381518110610aab57610aaa611984565b5b60200260200101819052508180610ac19061190d565b9250505b8080610ad09061190d565b915050610872565b508194505050505090565b60035481565b600260005403610b2e576040517f08c379a0000000000000000000000000000000000000000000000000000000008152600401610b2590611a10565b60405180910390fd5b600260008190555060006005600083815260200190815260200160002090508060040154341015610b94576040517f08c379a0000000000000000000000000000000000000000000000000000000008152600401610b8b90611bc3565b60405180910390fd5b60003390508160020160009054906101000a900473ffffffffffffffffffffffffffffffffffffffff1673ffffffffffffffffffffffffffffffffffffffff166108fc349081150290604051600060405180830381858888f19350505050158015610c03573d6000803e3d6000fd5b508373ffffffffffffffffffffffffffffffffffffffff166323b872dd308385600101546040518463ffffffff1660e01b8152600401610c4593929190611c42565b600060405180830381600087803b158015610c5f57600080fd5b505af1158015610c73573d6000803e3d6000fd5b50505050600460009054906101000a900473ffffffffffffffffffffffffffffffffffffffff1673ffffffffffffffffffffffffffffffffffffffff166108fc6003549081150290604051600060405180830381858888f19350505050158015610ce1573d6000803e3d6000fd5b50808260030160006101000a81548173ffffffffffffffffffffffffffffffffffffffff021916908373ffffffffffffffffffffffffffffffffffffffff1602179055506001826005016000828254610d3a9190611c79565b9250508190555060008260070160006101000a81548160ff021916908315150217905550610d6860016114bf565b7ff3fcdb33272460c0025823d66ac5c566b7fa3a8ac81c4e655d1d9a06665cb58884848460020160009054906101000a900473ffffffffffffffffffffffffffffffffffffffff1684866004015487600501548860060154604051610dd39796959493929190611cad565b60405180910390a1505060016000819055505050565b60606000610df76002611455565b90506000610e056001611455565b82610e109190611c79565b905060008167ffffffffffffffff811115610e2e57610e2d611955565b5b604051908082528060200260200182016040528015610e6757816020015b610e546114d5565b815260200190600190039081610e4c5790505b5090506000805b8481101561105b5760056000600183610e8791906118d9565b815260200190815260200160002060070160009054906101000a900460ff16156110485760056000600183610ebc91906118d9565b8152602001908152602001600020604051806101000160405290816000820160009054906101000a900473ffffffffffffffffffffffffffffffffffffffff1673ffffffffffffffffffffffffffffffffffffffff1673ffffffffffffffffffffffffffffffffffffffff168152602001600182015481526020016002820160009054906101000a900473ffffffffffffffffffffffffffffffffffffffff1673ffffffffffffffffffffffffffffffffffffffff1673ffffffffffffffffffffffffffffffffffffffff1681526020016003820160009054906101000a900473ffffffffffffffffffffffffffffffffffffffff1673ffffffffffffffffffffffffffffffffffffffff1673ffffffffffffffffffffffffffffffffffffffff1681526020016004820154815260200160058201548152602001600682015481526020016007820160009054906101000a900460ff16151515158152505083838151811061102e5761102d611984565b5b602002602001018190525081806110449061190d565b9250505b80806110539061190d565b915050610e6e565b508194505050505090565b6000600354905090565b6002600054036110b5576040517f08c379a00000000000000000000000000000000000000000000000000000000081526004016110ac90611a10565b60405180910390fd5b600260008190555060008311611100576040517f08c379a00000000000000000000000000000000000000000000000000000000081526004016110f790611d68565b60405180910390fd5b60008211611143576040517f08c379a000000000000000000000000000000000000000000000000000000000815260040161113a90611dd4565b60405180910390fd5b60008110158015611155575060648111155b611194576040517f08c379a000000000000000000000000000000000000000000000000000000000815260040161118b90611e66565b60405180910390fd5b60035434146111d8576040517f08c379a00000000000000000000000000000000000000000000000000000000081526004016111cf90611a7c565b60405180910390fd5b8473ffffffffffffffffffffffffffffffffffffffff166323b872dd3330876040518463ffffffff1660e01b815260040161121593929190611aab565b600060405180830381600087803b15801561122f57600080fd5b505af1158015611243573d6000803e3d6000fd5b5050505061125160026114bf565b6040518061010001604052808673ffffffffffffffffffffffffffffffffffffffff1681526020018581526020013373ffffffffffffffffffffffffffffffffffffffff1681526020013073ffffffffffffffffffffffffffffffffffffffff168152602001848152602001838152602001828152602001600115158152506005600086815260200190815260200160002060008201518160000160006101000a81548173ffffffffffffffffffffffffffffffffffffffff021916908373ffffffffffffffffffffffffffffffffffffffff1602179055506020820151816001015560408201518160020160006101000a81548173ffffffffffffffffffffffffffffffffffffffff021916908373ffffffffffffffffffffffffffffffffffffffff16021790555060608201518160030160006101000a81548173ffffffffffffffffffffffffffffffffffffffff021916908373ffffffffffffffffffffffffffffffffffffffff1602179055506080820151816004015560a0820151816005015560c0820151816006015560e08201518160070160006101000a81548160ff0219169083151502179055509050507f380acab0ee1d651da065961944240ee750b6935ba0edefa78afb1c8e076762868585333087878760405161143e9796959493929190611ae2565b60405180910390a160016000819055505050505050565b600081600001549050919050565b600081600001549050600081116114af576040517f08c379a00000000000000000000000000000000000000000000000000000000081526004016114a690611ed2565b60405180910390fd5b6001810382600001819055505050565b6001816000016000828254019250508190555050565b604051806101000160405280600073ffffffffffffffffffffffffffffffffffffffff16815260200160008152602001600073ffffffffffffffffffffffffffffffffffffffff168152602001600073ffffffffffffffffffffffffffffffffffffffff1681526020016000815260200160008152602001600081526020016000151581525090565b600081519050919050565b600082825260208201905092915050565b6000819050602082019050919050565b600073ffffffffffffffffffffffffffffffffffffffff82169050919050565b60006115b58261158a565b9050919050565b6115c5816115aa565b82525050565b6000819050919050565b6115de816115cb565b82525050565b60006115ef8261158a565b9050919050565b6115ff816115e4565b82525050565b60008115159050919050565b61161a81611605565b82525050565b6101008201600082015161163760008501826115bc565b50602082015161164a60208501826115d5565b50604082015161165d60408501826115f6565b50606082015161167060608501826115f6565b50608082015161168360808501826115d5565b5060a082015161169660a08501826115d5565b5060c08201516116a960c08501826115d5565b5060e08201516116bc60e0850182611611565b50505050565b60006116ce8383611620565b6101008301905092915050565b6000602082019050919050565b60006116f38261155e565b6116fd8185611569565b93506117088361157a565b8060005b8381101561173957815161172088826116c2565b975061172b836116db565b92505060018101905061170c565b5085935050505092915050565b6000602082019050818103600083015261176081846116e8565b905092915050565b600080fd5b611776816115aa565b811461178157600080fd5b50565b6000813590506117938161176d565b92915050565b6117a2816115cb565b81146117ad57600080fd5b50565b6000813590506117bf81611799565b92915050565b600080600080600060a086880312156117e1576117e0611768565b5b60006117ef88828901611784565b9550506020611800888289016117b0565b9450506040611811888289016117b0565b9350506060611822888289016117b0565b9250506080611833888289016117b0565b9150509295509295909350565b611849816115cb565b82525050565b60006020820190506118646000830184611840565b92915050565b6000806040838503121561188157611880611768565b5b600061188f85828601611784565b92505060206118a0858286016117b0565b9150509250929050565b7f4e487b7100000000000000000000000000000000000000000000000000000000600052601160045260246000fd5b60006118e4826115cb565b91506118ef836115cb565b9250828201905080821115611907576119066118aa565b5b92915050565b6000611918826115cb565b91507fffffffffffffffffffffffffffffffffffffffffffffffffffffffffffffffff820361194a576119496118aa565b5b600182019050919050565b7f4e487b7100000000000000000000000000000000000000000000000000000000600052604160045260246000fd5b7f4e487b7100000000000000000000000000000000000000000000000000000000600052603260045260246000fd5b600082825260208201905092915050565b7f5265656e7472616e637947756172643a207265656e7472616e742063616c6c00600082015250565b60006119fa601f836119b3565b9150611a05826119c4565b602082019050919050565b60006020820190508181036000830152611a29816119ed565b9050919050565b7f4e6f7420656e6f75676820657468657220666f72206c697374696e6720666565600082015250565b6000611a666020836119b3565b9150611a7182611a30565b602082019050919050565b60006020820190508181036000830152611a9581611a59565b9050919050565b611aa5816115aa565b82525050565b6000606082019050611ac06000830186611a9c565b611acd6020830185611a9c565b611ada6040830184611840565b949350505050565b600060e082019050611af7600083018a611a9c565b611b046020830189611840565b611b116040830188611a9c565b611b1e6060830187611a9c565b611b2b6080830186611840565b611b3860a0830185611840565b611b4560c0830184611840565b98975050505050505050565b7f4e6f7420656e6f75676820657468657220746f20636f7665722061736b696e6760008201527f2070726963650000000000000000000000000000000000000000000000000000602082015250565b6000611bad6026836119b3565b9150611bb882611b51565b604082019050919050565b60006020820190508181036000830152611bdc81611ba0565b9050919050565b6000819050919050565b6000611c08611c03611bfe8461158a565b611be3565b61158a565b9050919050565b6000611c1a82611bed565b9050919050565b6000611c2c82611c0f565b9050919050565b611c3c81611c21565b82525050565b6000606082019050611c576000830186611a9c565b611c646020830185611c33565b611c716040830184611840565b949350505050565b6000611c84826115cb565b9150611c8f836115cb565b9250828203905081811115611ca757611ca66118aa565b5b92915050565b600060e082019050611cc2600083018a611a9c565b611ccf6020830189611840565b611cdc6040830188611c33565b611ce96060830187611c33565b611cf66080830186611840565b611d0360a0830185611840565b611d1060c0830184611840565b98975050505050505050565b7f5072696365206d757374206265206174206c6561737420312077656900000000600082015250565b6000611d52601c836119b3565b9150611d5d82611d1c565b602082019050919050565b60006020820190508181036000830152611d8181611d45565b9050919050565b7f537570706c79206d757374206265206174206c65617374203100000000000000600082015250565b6000611dbe6019836119b3565b9150611dc982611d88565b602082019050919050565b60006020820190508181036000830152611ded81611db1565b9050919050565b7f526f79616c7479206d757374206265206265747765656e203020616e6420313060008201527f3000000000000000000000000000000000000000000000000000000000000000602082015250565b6000611e506021836119b3565b9150611e5b82611df4565b604082019050919050565b60006020820190508181036000830152611e7f81611e43565b9050919050565b7f436f756e7465723a2064656372656d656e74206f766572666c6f770000000000600082015250565b6000611ebc601b836119b3565b9150611ec782611e86565b602082019050919050565b60006020820190508181036000830152611eeb81611eaf565b905091905056fea2646970667358221220d483496998c9e56b80d5cad2bfe1192039177c418b9d59e923482d9d85f46cd264736f6c63430008110033",
  "immutableReferences": {},
  "source": "// SPDX-License-Identifier: MIT\r\npragma solidity ^0.8.13;\r\n\r\nimport \"@openzeppelin/contracts/utils/Counters.sol\";\r\nimport \"@openzeppelin/contracts/token/ERC721/ERC721.sol\";\r\nimport \"@openzeppelin/contracts/security/ReentrancyGuard.sol\";\r\n\r\ncontract Marketplace is ReentrancyGuard {\r\n    using Counters for Counters.Counter;\r\n    Counters.Counter private _nftsSold;\r\n    Counters.Counter private _nftCount;\r\n    uint256 public LISTING_FEE = 0.0001 ether;\r\n    address payable private _marketOwner;\r\n    mapping(uint256 => NFT) private _idToNFT;\r\n    struct NFT {\r\n        address nftContract;\r\n        uint256 tokenId;\r\n        address payable seller;\r\n        address payable owner;\r\n        uint256 price;\r\n        uint256 supply;\r\n        uint256 royalty;\r\n        bool listed;\r\n    }\r\n    event NFTListed(\r\n        address nftContract,\r\n        uint256 tokenId,\r\n        address seller,\r\n        address owner,\r\n        uint256 price,\r\n        uint256 supply,\r\n        uint256 royalty\r\n    );\r\n    event NFTSold(\r\n        address nftContract,\r\n        uint256 tokenId,\r\n        address seller,\r\n        address owner,\r\n        uint256 price,\r\n        uint256 supply,\r\n        uint256 royalty\r\n    );\r\n\r\n    constructor() {\r\n        // set marketOwner to \"0x944aFe2AF5C3d5637F1F3cDB4a130f272DE73420\"\r\n        _marketOwner = payable(0x944aFe2AF5C3d5637F1F3cDB4a130f272DE73420);\r\n    }\r\n\r\n    // List the NFT on the marketplace\r\n    function listNft(\r\n        address _nftContract,\r\n        uint256 _tokenId,\r\n        uint256 _price,\r\n        uint256 _supply,\r\n        uint256 _royalty\r\n    ) public payable nonReentrant {\r\n        require(_price > 0, \"Price must be at least 1 wei\");\r\n        require(_supply > 0, \"Supply must be at least 1\");\r\n        require(\r\n            _royalty >= 0 && _royalty <= 100,\r\n            \"Royalty must be between 0 and 100\"\r\n        );\r\n        require(msg.value == LISTING_FEE, \"Not enough ether for listing fee\");\r\n\r\n        IERC721(_nftContract).transferFrom(msg.sender, address(this), _tokenId);\r\n\r\n        _nftCount.increment();\r\n\r\n        _idToNFT[_tokenId] = NFT(\r\n            _nftContract,\r\n            _tokenId,\r\n            payable(msg.sender),\r\n            payable(address(this)),\r\n            _price,\r\n            _supply,\r\n            _royalty,\r\n            true\r\n        );\r\n\r\n        emit NFTListed(\r\n            _nftContract,\r\n            _tokenId,\r\n            msg.sender,\r\n            address(this),\r\n            _price,\r\n            _supply,\r\n            _royalty\r\n        );\r\n    }\r\n\r\n    // Resell an NFT purchased from the marketplace\r\n    function resellNft(\r\n        address _nftContract,\r\n        uint256 _tokenId,\r\n        uint256 _price,\r\n        uint256 _supply,\r\n        uint256 _royalty\r\n    ) public payable nonReentrant {\r\n        require(msg.value == LISTING_FEE, \"Not enough ether for listing fee\");\r\n\r\n        IERC721(_nftContract).transferFrom(msg.sender, address(this), _tokenId);\r\n\r\n        NFT storage nft = _idToNFT[_tokenId];\r\n        nft.seller = payable(msg.sender);\r\n        nft.owner = payable(address(this));\r\n        nft.listed = true;\r\n        nft.price = _price;\r\n        nft.supply = _supply;\r\n        nft.royalty = _royalty;\r\n\r\n        _nftsSold.decrement();\r\n        emit NFTListed(\r\n            _nftContract,\r\n            _tokenId,\r\n            msg.sender,\r\n            address(this),\r\n            _price,\r\n            nft.supply,\r\n            _royalty\r\n        );\r\n    }\r\n\r\n    // Buy an NFT that pays the original seller the royalty\r\n    function buyNft(address _nftContract, uint256 _tokenId)\r\n        public\r\n        payable\r\n        nonReentrant\r\n    {\r\n        NFT storage nft = _idToNFT[_tokenId];\r\n        require(\r\n            msg.value >= nft.price,\r\n            \"Not enough ether to cover asking price\"\r\n        );\r\n\r\n        address payable buyer = payable(msg.sender);\r\n        payable(nft.seller).transfer(msg.value);\r\n        IERC721(_nftContract).transferFrom(address(this), buyer, nft.tokenId);\r\n        _marketOwner.transfer(LISTING_FEE);\r\n        nft.owner = buyer;\r\n        nft.supply -= 1;\r\n        nft.listed = false;\r\n\r\n        _nftsSold.increment();\r\n        emit NFTSold(\r\n            _nftContract,\r\n            _tokenId,\r\n            // allow the seller to get royalties\r\n            nft.seller,\r\n            buyer,\r\n            nft.price,\r\n            nft.supply,\r\n            nft.royalty\r\n        );\r\n    }\r\n\r\n    function getListingFee() public view returns (uint256) {\r\n        return LISTING_FEE;\r\n    }\r\n\r\n    function getListedNfts() public view returns (NFT[] memory) {\r\n        uint256 nftCount = _nftCount.current();\r\n        uint256 unsoldNftsCount = nftCount - _nftsSold.current();\r\n\r\n        NFT[] memory nfts = new NFT[](unsoldNftsCount);\r\n        uint256 nftsIndex = 0;\r\n        for (uint256 i = 0; i < nftCount; i++) {\r\n            if (_idToNFT[i + 1].listed) {\r\n                nfts[nftsIndex] = _idToNFT[i + 1];\r\n                nftsIndex++;\r\n            }\r\n        }\r\n        return nfts;\r\n    }\r\n\r\n    function getMyNfts() public view returns (NFT[] memory) {\r\n        uint256 nftCount = _nftCount.current();\r\n        uint256 myNftCount = 0;\r\n        for (uint256 i = 0; i < nftCount; i++) {\r\n            if (_idToNFT[i + 1].owner == msg.sender) {\r\n                myNftCount++;\r\n            }\r\n        }\r\n\r\n        NFT[] memory nfts = new NFT[](myNftCount);\r\n        uint256 nftsIndex = 0;\r\n        for (uint256 i = 0; i < nftCount; i++) {\r\n            if (_idToNFT[i + 1].owner == msg.sender) {\r\n                nfts[nftsIndex] = _idToNFT[i + 1];\r\n                nftsIndex++;\r\n            }\r\n        }\r\n        return nfts;\r\n    }\r\n\r\n    function getMyListedNfts() public view returns (NFT[] memory) {\r\n        uint256 nftCount = _nftCount.current();\r\n        uint256 myListedNftCount = 0;\r\n        for (uint256 i = 0; i < nftCount; i++) {\r\n            if (\r\n                _idToNFT[i + 1].seller == msg.sender && _idToNFT[i + 1].listed\r\n            ) {\r\n                myListedNftCount++;\r\n            }\r\n        }\r\n\r\n        NFT[] memory nfts = new NFT[](myListedNftCount);\r\n        uint256 nftsIndex = 0;\r\n        for (uint256 i = 0; i < nftCount; i++) {\r\n            if (\r\n                _idToNFT[i + 1].seller == msg.sender && _idToNFT[i + 1].listed\r\n            ) {\r\n                nfts[nftsIndex] = _idToNFT[i + 1];\r\n                nftsIndex++;\r\n            }\r\n        }\r\n        return nfts;\r\n    }\r\n}\r\n",
  "sourcePath": "C:\\Users\\chris\\ETH-SanFrancisco\\destemr-official\\backend\\contracts\\Marketplace.sol",
  "compiler": {
    "name": "solc",
    "version": "0.8.17+commit.8df45f5f.Emscripten.clang"
  },
  "schemaVersion": "3.4.10",
  "updatedAt": "2022-10-24T05:36:01.844Z",
  "networkType": "ethereum",
  "devdoc": {
    "kind": "dev",
    "methods": {},
    "version": 1
  },
  "userdoc": {
    "kind": "user",
    "methods": {},
    "version": 1
  }
}